:020000040800F2
:1000000090060020B10B0008B9020008BB020008EE
:10001000BF020008C3020008C70200080000000079
:10002000000000000000000000000000CB020008FB
:10003000CD02000800000000CF020008D102000835
:10004000CB0B0008CB0B0008CB0B0008CB0B000838
:10005000CB0B0008CB0B0008CB0B0008CB0B000828
:10006000CB0B0008CB0B0008CB0B0008CB0B000818
:10007000CB0B0008CB0B0008CB0B0008CB0B000808
:10008000CB0B0008CB0B0008CB0B0008CB0B0008F8
:10009000CB0B0008CB0B0008CB0B0008CB0B0008E8
:1000A000CB0B0008CB0B0008CB0B0008CB0B0008D8
:1000B000CB0B0008CB0B0008CB0B0008CB0B0008C8
:1000C000CB0B0008CB0B0008CB0B0008CB0B0008B8
:1000D000CB0B0008110A0008CB0B0008CB0B000863
:1000E000CB0B0008CB0B0008CB0B0008CB0B000898
:1000F000CB0B0008CB0B0008CB0B0008CB0B000888
:10010000CB0B0008CB0B0008CB0B0008CB0B000877
:10011000CB0B0008CB0B0008CB0B0008CB0B000867
:10012000CB0B0008CB0B0008CB0B0008CB0B000857
:1001300000F002F800F03AF80AA090E8000C8244BF
:100140008344AAF10107DA4501D100F02FF8AFF29C
:10015000090EBAE80F0013F0010F18BFFB1A43F0A5
:1001600001031847482D0000682D0000103A24BFF5
:1001700078C878C1FAD8520724BF30C830C144BF0C
:1001800004680C607047000000230024002500264E
:10019000103A28BF78C1FBD8520728BF30C148BFEA
:1001A0000B6070471FB51FBD10B510BD02F020FADF
:1001B0001146FFF7F7FF00F04AF802F03EFA03B4E9
:1001C000FFF7F2FF03BC02F043FA000030B589B03C
:1001D00005460C460121022001F02DF801210920DD
:1001E00001F01CF801212A4800F031FE2020ADF872
:1001F000200018208DF8230003208DF8220008A984
:10020000244800F055FDADF81850ADF8144000201A
:10021000ADF81A00ADF8160005A91F4801F0ACFBB7
:100220007020ADF804000120ADF806000020ADF804
:100230000C0001A9184801F01EFC0821164802F024
:1002400030F80121144801F0F3FE09B030BD00BFC1
:1002500000F046FC00F0ADF900F00FFA0FA201210A
:10026000084600F0BAFA10A20121032000F0B5FA06
:1002700040F2671140F2E730FFF7A8FF4FF4165045
:1002800000F059FB00200B49086000BFFEE70000AA
:1002900000081A00000C014000040040525820449D
:1002A000617461A3BA00000054582044617461A3D2
:1002B000BA00000080012142704700BFFEE700BF86
:1002C000FEE700BFFEE700BFFEE7704770477047DC
:1002D000704700000CB50020019000906B4800684A
:1002E00040F480306949086000BF6848006800F445
:1002F000003000900198401C0190009818B90198B6
:10030000B0F5A06FF1D16148006810F4003F02D051
:100310000120009001E0002000900098012842D1C7
:100320005B48006840F010005949086008460068C2
:1003300020F0030008600846006840F002000860F2
:10034000524840685149486008464068486008463D
:10035000406840F4806048600846406820F47C10A3
:1003600048600846406840F4E81048600846006865
:1003700040F08070086000BF4448006810F0007FC3
:10038000FAD04248406820F00300404948600846DF
:10039000406840F00200486000BF3C48406800F000
:1003A0000C000828F9D10CBD10B5FFF793FF10BD64
:1003B00010B53648006840F001003449086008462E
:1003C000406834490840314948600846006832496D
:1003D00008402E4908600846006820F48020086024
:1003E0000846406820F4FE0048604FF41F00886013
:1003F000FFF7DAFF4FF000602849086010BD10B524
:10040000002100200022214B5B6803F00C0121B188
:10041000042906D0082928D107E0214B214C23606C
:1004200027E01F4B1F4C236023E0184B5B6803F44D
:100430007010164B5B6803F48032022303EB90408C
:1004400022B9194B4343174C23600DE00F4B5B68F7
:1004500013F4003F04D0144B4343124C236003E0D9
:100460000F4B43430F4C236003E00D4B0D4C2360B7
:1004700000BF00BF054B5B68C3F303130B4CE15C8B
:10048000084B1B68CB40074C236010BD0010024096
:10049000002002400000FFF8FFFFF6FE08ED00E03C
:1004A00000127A000000002000093D000400002036
:1004B00008B50121042000F0B1FE3E20ADF8000097
:1004C00010208DF8030003208DF802006946FC48D7
:1004D00000F0EEFB0221FA4800F095FC0421F848F8
:1004E00000F091FC0821F64800F08DFC1021F44842
:1004F00000F089FC2021F24800F085FC08BD0022B4
:10050000F04B1A60F04BC3F88C21114617E0002223
:10051000EE4B1A6010F0800F04D00122A3F1040307
:100520001A6002E00022EA4B1A604FF00102E74B2A
:100530001A604FEA4002104601F10102D1B20829C7
:10054000E5DB0122DF4B1A6070470022DD4B1A60A9
:100550004FF00102DC4BC3F88C214FF0000116E094
:100560000022DA4B1A6010F0800F03D00122D84B22
:100570001A6002E00022D64B1A604FF00102D34B02
:100580001A604FEA4002104601F10102D1B2082977
:10059000E6DB0122CB4B1A607047002106E0002207
:1005A00000E0521CB2F59B7FFBDB491C8142F6DB6D
:1005B000704710B5FFF77CFF6420FFF7EEFF0020C7
:1005C000C0490860C049C1F890014FF01400FFF71E
:1005D000E4FF0120BF4908604FF01400FFF7DDFF82
:1005E000E220FFF78CFF3220FFF7D7FF2C20FFF728
:1005F00086FF3220FFF7D1FF2E20FFF780FF322049
:10060000FFF7CBFF2F20FFF77AFF3220FFF7C5FF60
:100610002420FFF774FF8120FFF771FF2320FFF7ED
:100620006EFFA220FFF76BFFC820FFF768FFA02036
:10063000FFF765FF4020FFF762FFAF20FFF75FFF86
:100640000120A149C1F8940110BD30B505460C4602
:1006500000209C49086000BFA5F10100C5B205F16A
:10066000B000FFF74CFF102101EB1410FFF747FF1C
:1006700004F00F00FFF743FF30BD30B50020914973
:10068000086004460FE0611CC8B20021FFF7DDFFDF
:10069000002504E00020FFF758FF681CC5B2842D38
:1006A000F8DB601CC4B2092CEDDB01208549086031
:1006B00030BDF0B507460D46002415E00020814905
:1006C000086004F10101C8B24FF00001FFF7BDFF5F
:1006D000002606E03846FFF738FF2846FFF735FFCB
:1006E000761C402EF6DB641C082CE7DBF0BD2DE900
:1006F000F04F82468B4690461D46002400207149EB
:10070000086035E0285D202831DB285D7E282EDC5E
:10071000285DA0F12009002623E008F0FF010BEB83
:100720000602D0B2FFF791FF002717E0BAF1010FE0
:1007300009D1694901EB0911082202FB0672885CA4
:10074000FFF703FF09E0644901EB0911082202FBEE
:100750000672895CC843FFF7F8FE7F1C082FE5D3BB
:10076000761C022ED9D3641C08F1080800E0641C32
:10077000285D0028C6DCBDE8F08F2DE9F04706466D
:100780000F469046994609F1100A002421E008F02E
:10079000FF013A19D0B2FFF758FF002516E0012EED
:1007A00009D14D4901EB0A11082202FB0452885C71
:1007B000FFF7CBFE09E0484901EB0A11082202FBD2
:1007C0000452895CC843FFF7C0FE6D1C082DE6D3B8
:1007D000641C022CDBD3BDE8F0872DE9F043804692
:1007E0000E46154600240020364908601DE0285DAD
:1007F000202819DB285D7E2816DA285DA0F1200963
:10080000F1B208F0FF00FFF720FF002707E009EB37
:100810008901324A1144C85DFFF797FE7F1C052FFE
:10082000F5D3641CB61D00E0641C285D0028DEDCE6
:10083000BDE8F0832DE9F04306460F4690461C467E
:10084000002518E07919C8B24146FFF7FEFE4FF0C7
:1008500000090CE0012E03D12078FFF776FE03E0BB
:100860002178C843FFF771FE641C09F10109B9F151
:10087000100FEFD36D1C022DE4D3BDE8F08330B52B
:10088000002408E0611CC8B20021FFF7DEFEFF2053
:10089000FFF75BFE641C082CF4D3002408E0611C05
:1008A000C8B27F21FFF7D1FEFF20FFF74EFE641C88
:1008B000082CF4D301210846FFF7C7FE002513E0FA
:1008C0000008014094012142000021428801214298
:1008D00084012142900121425E2600084E2C00082E
:1008E0000120FFF732FE6D1C7E2DF9D30121082077
:1008F000FFF7ABFE002503E08020FFF726FE6D1C0E
:100900007E2DF9D330BD000008B50121042000F090
:1009100085FC0120ADF8000010208DF803000320B5
:100920008DF8020069466A4800F0C2F90121684862
:1009300000F069FA08BD10B586B00446FFF7E4FF81
:10094000012144F2040000F069FC624800F0CEFC92
:100950004FF40070ADF8140003208DF81600182035
:100960008DF8170005A95A4800F0A2F94FF48060ED
:10097000ADF8140004208DF8170005A9544800F0C4
:1009800097F925208DF8000003208DF801008DF8DF
:10099000020001208DF80300684600F0B0FE0194CB
:1009A0000020ADF80800ADF80A00ADF80C00ADF875
:1009B00010000C20ADF80E0001A9464800F0D9FC4B
:1009C000012240F22551434800F06BFD01214148CE
:1009D00000F05BFD06B010BD10B5044601203E4995
:1009E000086000BF4FF040013A4800F029FE00289F
:1009F000F8D02146374800F0B5FD00BF402135480A
:100A000000F01EFE0028F9D000203349086010BD18
:100A10000EB5002001900290009040F225512D4823
:100A200000F024FE002851D02C480068401C2B49BF
:100A30000860284800F09AFDC0B28DF800006A46B0
:100A400001210220FFF7C9FE6A4601210420FFF7B9
:100A5000C4FE9DF80000FFF7BFFF204800680A2190
:100A600090FBF1F201FB12003030C0B28DF80700AC
:100A70001A48006890FBF1F090FBF1F201FB1200C4
:100A80003030C0B28DF8060014480068642190FB35
:100A9000F1F00A2190FBF1F201FB12003030C0B2FC
:100AA0008DF805000D4800684FF47A7190FBF1F065
:100AB0000A2190FBF1F201FB12003030C0B28DF838
:100AC000040001AA01210520FFF787FE0EBD0000EA
:100AD000000801400038014080012142140000203C
:100AE00010B56FF0040000F055FE2D4800682D4948
:100AF000B0FBF1F02C4908700846007800EB40018B
:100B0000C1EBC0104FF6FF7101EAC0002749088011
:100B100010BD0146244A12784A434FF0E0235A613F
:100B200000229A611A46126942F001021A6100BF5E
:100B30004FF0E022106910F0010F02D010F4803F56
:100B4000F6D04FF0E022126922F001024FF0E023CC
:100B50001A6100229A6170470146144A12884A437A
:100B60004FF0E0235A6100229A611A46126942F05E
:100B700001021A6100BF4FF0E022106910F0010F6E
:100B800002D010F4803FF6D04FF0E022126922F03C
:100B900001024FF0E0231A6100229A6170470000C1
:100BA0000000002000127A00180000201A00002027
:100BB0000948804709480047FEE7FEE7FEE7FEE7F1
:100BC000FEE7FEE7FEE7FEE7FEE7FEE7044805492D
:100BD000054A064B70470000B103000831010008C8
:100BE000900000209006002090020020900200203B
:100BF00010B50446CA48844208D10121042000F0FF
:100C000027FB0021042000F023FB46E0C548844276
:100C100008D10121082000F01BFB0021082000F072
:100C200017FB3AE0C048844208D10121102000F0AF
:100C30000FFB0021102000F00BFB2EE0BB4884428C
:100C400008D10121202000F003FB0021202000F02A
:100C5000FFFA22E0B648844208D10121402000F08A
:100C6000F7FA0021402000F0F3FA16E0B148844280
:100C700008D10121802000F0EBFA0021802000F053
:100C8000E7FA0AE0AC48844207D10121801500F060
:100C9000DFFA0021A01500F0DBFA10BD10B501212C
:100CA000084600F0D5FA0021012000F0D1FA10BD6D
:100CB0002DE9F041024600250026002000230024F3
:100CC000002791F803C00CF00F0591F803C01CF049
:100CD000100F03D091F802C04CEA050591F800C04E
:100CE000BCF1000F31D0146800202BE04FF0010C54
:100CF0000CFA00F3B1F800C00CEA03069E4220D1C2
:100D000083004FF00F0C0CFA03F7BC4305FA03FC09
:100D10004CEA040491F803C0BCF1280F06D14FF04F
:100D2000010C0CFA00FCC2F814C00AE091F803C0F0
:100D3000BCF1480F05D14FF0010C0CFA00FCC2F8D1
:100D400010C0401C0828D1D31460B1F800C0BCF119
:100D5000FF0F34DD546800202EE000F1080C4FF046
:100D6000010808FA0CF3B1F800C00CEA03069E4231
:100D700021D183004FF00F0C0CFA03F7BC4305FAA6
:100D800003FC4CEA040491F803C0BCF1280F05D120
:100D900000F1080C08FA0CF8C2F8148091F803C0AE
:100DA000BCF1480F07D100F1080C4FF0010808FA18
:100DB0000CF8C2F81080401C0828CED35460BDE85F
:100DC000F0814FF6FF710180022181700421C17012
:100DD00070470246002093680B4201D0012000E0DA
:100DE000002070470146886880B2704702460020A4
:100DF000D3680B4201D0012000E00020704701467B
:100E0000C86880B2704701617047416170470AB19C
:100E1000016100E041617047C16070474FF480326A
:100E20000A438261816182618269826970470246F8
:100E30000020424B18684FF68073184040EA0210B9
:100E400008433E4B186070473D49C8617047F0B594
:100E50000A46002300240021002500F00046B6F1D8
:100E6000004F02D1354EF16901E0344E7168C0F394
:100E7000034583B200F44016B6F5401F08D121F0B7
:100E800070612E4E766826F070662C4F7E6012E000
:100E900000F48016B6F5801F06D1032606FA05F485
:100EA000A14341F0706106E0460D360103FA06F6F3
:100EB000B14341F0706122B1460D360103FA06F6E6
:100EC000314300F00046B6F1004F02D11B4EF161F4
:100ED00001E01A4E7160F0BD30B500228B071C0F87
:100EE0000F2303FA04F2154B08338C1053F8243007
:100EF0009343124C08348D1044F8253023468C104F
:100F000053F824308C07240F00FA04F423430B4CCD
:100F100008348D1044F8253030BD0A490860704708
:100F200000080140000C0140001001400014014085
:100F300000180140001C0140002001400000014059
:100F400000002042DC002042DD48006840F0010043
:100F5000DB49086008464068DA490840D8494860DB
:100F600008460068D8490840D54908600846006826
:100F700020F4802008600846406820F4FE004860A5
:100F80004FF41F0088607047CD49096821F4803113
:100F9000CB4A11601146096821F480211160B0F537
:100FA000803F03D0B0F5802F0ED106E0C449096818
:100FB00041F48031C24A116007E0C149096841F437
:100FC000A021BF4A116000E000BF00BF704710B50C
:100FD00001460022002300204A11012A02D1B84C08
:100FE000236806E0022A02D1B54C236A01E0B44C22
:100FF000636A01F01F02012494401C4201D00120C9
:1010000000E0002010BD38B500200090002400252D
:1010100000BF3120FFF7DBFF05460098401C009021
:101020000098B0F5A06F01D0002DF2D03120FFF76D
:10103000CEFF08B1012400E00024204638BD01465F
:1010400000209F4A106820F0F80040EAC1001060BC
:1010500070479E490860704702460020984B5868C8
:1010600020F47C1042EA01031843954B5860704706
:1010700096490866704701460020914A506820F062
:1010800003000843506070478D48406800F00C0032
:101090007047014600208A4A506820F0F00008435B
:1010A0005060704701460020854A506820F4E06097
:1010B00008435060704701460020814A506820F480
:1010C000605040EAC1005060704729B17C4A527AB2
:1010D00002437B4B5A7204E0794A527A8243784B3E
:1010E0005A7270477A490860704701460020744A76
:1010F000506820F440400843506070470021754A12
:1011000011706F4A82F82010012802D0042808D1FB
:1011100003E001216F4A117004E005216D4A11704E
:1011200000E000BF00BF70476B490860704764492A
:10113000096A0143624A116270476749443908608D
:10114000704730B500210022002400235C4D6D68FB
:1011500005F00C0121B1042905D0082923D105E0AF
:101160005E4D056022E05D4D05601FE0544D6D68E9
:1011700005F47012524D6D6805F48034022505EBBC
:1011800092421CB9564D554305600BE04C4D6D68BD
:1011900015F4003F03D0524D5543056002E04F4D1A
:1011A0005543056002E04D4D056000BF00BF444D52
:1011B0006D6805F0F00109094A4D6B5C0568DD407A
:1011C00045603F4D6D6805F4E061090A454D6B5C73
:1011D0004568DD4085603A4D6D6805F46051C90A87
:1011E000404D6B5C4568DD40C560354D6D6805F46C
:1011F0004041890B3C4D6B5CC568B5FBF3F505615F
:1012000030BD29B12E4A526902432D4B5A6104E088
:101210002B4A526982432A4B5A61704729B1284AA6
:1012200092690243264B9A6104E0254A92698243FF
:10123000234B9A61704729B1214AD2690243204B5E
:10124000DA6104E01E4AD26982431D4BDA617047BD
:1012500029B11B4AD2680243194BDA6004E0184AEC
:10126000D2688243164BDA60704729B1144A12697A
:101270000243134B1A6104E0114A12698243104B76
:101280001A61704714494039086070470F49C864B3
:1012900070470B49C87170470948406A40F0807038
:1012A00007494862704701460020054A92680A4291
:1012B00001D0012000E0002070470149887270478A
:1012C000001002400000FFF8FFFFF6FE000042425F
:1012D000D8004242201002408004424200127A00AC
:1012E00000093D001C0000202C00002010B5044621
:1012F000FB48844209D101218803FFF7A9FF00219F
:101300004FF48040FFF7A4FF32E0F648844209D151
:1013100001214804FFF7A9FF00214FF40030FFF737
:10132000A4FF25E0F048844209D101218804FFF799
:101330009CFF00214FF48020FFF797FF18E0EB4857
:10134000844209D10121C804FFF78FFF00214FF427
:101350000020FFF78AFF0BE0E548844208D1012115
:101360000805FFF782FF00214FF48010FFF77DFF93
:1013700010BD2DE9F04786B005460E460024A24672
:1013800000BFA1460027B08900B100BF2F462C8ABC
:101390004CF6FF700440F08804432C82AC894EF672
:1013A000F3100440B088318908437189084304432D
:1013B000AC81AC8A4FF6FF400440B0890443AC8254
:1013C00001A8FFF7BEFEC648874202D1DDF810A093
:1013D00001E0DDF80CA0A88910F4004F08D00AEB5A
:1013E000CA0000EB0A1031684900B0FBF1F807E0D1
:1013F0000AEBCA0000EB0A1031688900B0FBF1F873
:101400006420B8FBF0F004012009642101FB10897D
:10141000A88910F4004F08D0322000EBC900B0FBBF
:10142000F1F000F00700044308E0322000EB09105F
:101430006421B0FBF1F000F00F0004432C8106B0F2
:10144000BDE8F0874FF41651016000218180C18012
:1014500001810C21418100218181704710B5024634
:101460000020108A4FF2FF0318400B884C8823435A
:101470008C882343CC8823431843108210BD00215D
:10148000018041808180C180704721B1828942F40E
:101490000052828104E082894DF6FF731A408281F6
:1014A0007047F0B503460024002600250020A1F572
:1014B00010676A3F00D100BF1846C1F3421401F023
:1014C0001F06012707FA06F5012C01D10C3004E0B4
:1014D000022C01D1103000E014301AB107682F43FC
:1014E000076002E00768AF430760F0BD1AB1838A66
:1014F0000B43838202E0838A8B4383827047028A94
:101500004FF6F0731A400282028A0A430282704741
:1015100082894FF2FF731A40828182890A43828155
:10152000704721B1828942F00202828104E08289FF
:101530004FF6FD731A4082817047028A4FF6DF73BF
:101540001A400282028A0A430282704721B1028A4B
:1015500042F48042028204E0028A4BF6FF731A4092
:1015600002827047C1F30802828070470146888872
:10157000C0F308007047818941F001018181704703
:10158000028BD2B20283028B42EA012202837047AD
:10159000028B02F47F420283028B0A43028370476C
:1015A00021B1828A42F02002828204E0828A4FF6D0
:1015B000DF731A408282704721B1828A42F01002A2
:1015C000828204E0828A4FF6EF731A40828270476B
:1015D00021B1828A42F00802828204E0828A4FF6B8
:1015E000F7731A408282704721B1828942F4004227
:1015F000828103E08289C2F30E028281704721B1A9
:10160000828A42F40062828204E0828A4FF2FF738F
:101610001A4082827047828A4FF6FB731A40828298
:10162000828A0A438282704721B1828A42F0020292
:10163000828204E0828A4FF6FD731A4082827047EC
:1016400002460020B1F5007F00D100BF13880B4295
:1016500001D0012000E00020704701F40072B2F5D3
:10166000007F00D100BFCA430280704770B50246B8
:101670000024002300250020A1F510666A3E00D159
:1016800000BFC1F3421501F01F03012606FA03F360
:10169000012D02D19689334006E0022D02D1168A2F
:1016A000334001E0968A33400C12012606FA04F416
:1016B0001688344013B10CB1012000E0002070BD49
:1016C00010B500220023A1F510646A3C00D100BFD0
:1016D0000A1201249440A3B2DC43048010BD000030
:1016E000003801400044004000480040004C0040E9
:1016F0000050004031490143314A1160704770B5D4
:10170000002100230F22C4780CB32D4C246804F46C
:10171000E064C4F5E064210AC1F10403CA404478DE
:1017200004FA03F18478144021430901254C06781A
:10173000A155047804F01F050124AC4005786D1113
:101740004FF0E02606EB8505C5F8004109E0047876
:1017500004F01F050124AC401B4D0678761145F8B6
:10176000264070BD194A0A400243154B1B1F1A60E0
:10177000704739B1124A121D12680243104B1B1DEB
:101780001A6006E00E4A121D126882430C4B1B1DA4
:101790001A607047042808D14FF0E021096941F030
:1017A00004014FF0E022116107E04FF0E0210969E8
:1017B00021F004014FF0E022116170470000FA05AA
:1017C0000CED00E000E400E080E100E080FFFF1F9E
:1017D00010B50446FE48844208D10121C014FFF729
:1017E00037FD0021E014FFF733FDC4E0B4F1804F72
:1017F00008D101210846FFF738FD00210120FFF73D
:1018000034FDB8E0F348844208D101210220FFF7FB
:101810002CFD00210220FFF728FDACE0EE488442B9
:1018200008D101210420FFF720FD00210420FFF74B
:101830001CFDA0E0E948844208D101210820FFF7FF
:1018400014FD00210820FFF710FD94E0E4488442D5
:1018500008D101211020FFF708FD00211020FFF71B
:1018600004FD88E0DF48844208D101212020FFF7F1
:10187000FCFC00212020FFF7F8FC7CE0DA488442E1
:1018800008D101214014FFF7E3FC00216014FFF7A9
:10189000DFFC70E0D548844209D10121C804FFF77C
:1018A000D7FC00214FF40020FFF7D2FC63E0D048C2
:1018B000844209D101210805FFF7CAFC00214FF439
:1018C0008010FFF7C5FC56E0CA48844209D10121C7
:1018D0004805FFF7BDFC00214FF40010FFF7B8FCEE
:1018E00049E0C548844208D101214020FFF7BDFCF2
:1018F00000214020FFF7B9FC3DE0C048844208D1F8
:1019000001218020FFF7B1FC00218020FFF7ADFC12
:1019100031E0BB48844208D101218015FFF7A5FCC6
:101920000021A015FFF7A1FC25E0B648844209D1AB
:1019300001210804FFF78CFC00214FF48030FFF7F1
:1019400087FC18E0B048844209D101214804FFF720
:101950007FFC00214FF40030FFF77AFC0BE0AB482E
:10196000844208D101218804FFF772FC00214FF462
:101970008020FFF76DFC10BD00220288944B984236
:101980000ED0994B98420BD0B0F1804F08D0914BBC
:10199000984205D0904B984202D0904B984204D187
:1019A0004FF68F731A404B881A438D4B984207D0DD
:1019B0008C4B984204D04FF6FF431A40CB881A4311
:1019C00002808B8883850B880385814B98420BD0DE
:1019D000854B984208D08B4B984205D08A4B984251
:1019E00002D08A4B984201D10B7A0386012383826D
:1019F000704770B5002400220023058C4FF6FE7658
:101A000035400584028C8388048B4FF68F752C40FB
:101A1000B51E2C400D882C43751E2A400D892A4383
:101A20004D882A436A4DA8420BD06F4DA84208D07A
:101A3000744DA84205D0744DA84202D0734DA842FF
:101A400013D14FF6F7752A404D892A434FF6FB759F
:101A50002A408D882A434FF6FF652B404FF6FF55ED
:101A60002B408D892B43CD892B4383800483CD88E4
:101A70008586028470BD70B5002400220023058C89
:101A80004FF6EF7635400584028C8388048B48F648
:101A9000FF752C404FF6FF452C400D884FF6FF7622
:101AA00006EA05252C434FF6DF752A400D8906EA24
:101AB00005152A434D8806EA05152A43444DA842D8
:101AC00002D0494DA8421DD14FF67F752A404D895D
:101AD0004FF6FF7606EA05152A434FF6BF752A40F2
:101AE0008D8806EA05152A434FF6FF352B404FF245
:101AF000FF752B408D8906EA85052B43CD8906EAC3
:101B000085052B4383800483CD880587028470BDBF
:101B100070B5002400220023058C4FF6FF66354087
:101B20000584028C8388848B4FF68F752C404FF68A
:101B3000FC752C400D882C434FF6FF552A400D892B
:101B40004FF6FF7606EA05252A434D8806EA052565
:101B50002A431F4DA84202D0234DA8421DD14FF267
:101B6000FF752A404D894FF6FF7606EA05252A4380
:101B70004FF6FF352A408D8806EA05252A434EF6A2
:101B8000FF752B404DF6FF752B408D8906EA051534
:101B90002B43CD8906EA05152B4383808483CD88AA
:101BA0008587028470BD70B5002200230024058C57
:101BB0004EF6FF7635400584038C8488828B48F688
:101BC000FF752A404FF6FF452A400D8820E00000AF
:101BD000002C01400004004000080040000C0040C0
:101BE000001000400014004000340140004C01404F
:101BF000005001400054014000180040001C00400B
:101C000000200040004001400044014000480140E5
:101C10004FF6FF7606EA05252A434DF6FF752B4061
:101C20000D8906EA05352B434D8806EA05352B4319
:101C3000FA4DA84202D0FA4DA84208D14BF6FF75E2
:101C40002C408D894FF6FF7606EA85152C4384805B
:101C50008283CD88A0F84050038470BD828B4FF200
:101C6000FF331A408283828B4FF6FF7303EA01230E
:101C70001A4382837047F0B50C46154600220021B6
:101C80000026078C4EF6FF7C07EA0C070784828B40
:101C9000018C4FF6FF7707EA043640F6FF473A40DB
:101CA0004FF6FF7707EA05273A434FF6FF7707EA33
:101CB00003373A43D94FB8420ED0D94FB8420BD070
:101CC000B0F1804F08D0D74FB84205D0D64FB842B8
:101CD00002D0D64FB84206D14DF6FF77394046F4D0
:101CE0008057394305E047F6FF57394044F48057A1
:101CF000394382830184F0BD828B4FF6F3731A401F
:101D00008283828B0A4382837047F0B50C46154666
:101D1000002200210026078C4FF6FF6C07EA0C0713
:101D20000784828B018C4FF6FF7707EA04264FF673
:101D30000C773A404FF6FF7707EA03172F433A43F1
:101D4000B64FB8420ED0B64FB8420BD0B0F1804F6C
:101D500008D0B44FB84205D0B34FB84202D0B34F09
:101D6000B84206D14FF6FF57394046F480773943E1
:101D700005E04FF2FF57394044F4807739438283BE
:101D80000184F0BD028B4FF2FF331A400283028BB5
:101D90004FF6FF7303EA01231A4302837047F0B53D
:101DA0000C461546002200210026078C4FF6EF7CDA
:101DB00007EA0C070784028B018C4FF6FF7707EACE
:101DC000041640F6FF473A404FF6FF7707EA03371D
:101DD0003A434FF6FF7707EA05273A438F4FB84259
:101DE0000ED08F4FB8420BD0B0F1804F08D08D4F3E
:101DF000B84205D08C4FB84202D08C4FB84206D1C1
:101E00004FF6DF77394046F01007394305E04FF6CB
:101E10005F77394044F01007394302830184F0BDF5
:101E2000028B4FF6F3731A400283028B0A4302833C
:101E30007047F0B50C46154600220021068C4FF67F
:101E4000FE773E400684028B018C4FF60C763240C2
:101E50007E1C06EA03162E433243704EB0420ED06B
:101E60006F4EB0420BD0B0F1804F08D06D4EB042F3
:101E700005D06D4EB04202D06C4EB04206D14FF646
:101E8000FD76314044F00106314305E04FF6F5762A
:101E9000314044F00106314302830184F0BD70B546
:101EA00005460C465D4885420ED05D4885420BD004
:101EB000B5F1804F08D05B48854205D05A4885422D
:101EC00002D05A48854200D100E000BF208850B9B6
:101ED0002389A28861882846FFF7ABFFE18828465E
:101EE000FFF79EFF25E0208804280AD12389A288D5
:101EF00061882846FFF753FFE1882846FFF742FF35
:101F000017E0208808280AD12389A28861882846FA
:101F1000FFF7FBFEE1882846FFF7EEFE09E0238984
:101F2000A28861882846FFF7A6FEE1882846FFF7C9
:101F300095FE70BD2DE9F04105460C4600260127AF
:101F4000608808B9022600E00026A088012801D197
:101F5000022700E001272088A0B92389A288618890
:101F60002846FFF766FFE1882846FFF759FF2389D7
:101F70003A4631462846FFF712FFE1882846FFF728
:101F800001FF13E02389A28861882846FFF707FF35
:101F9000E1882846FFF7F6FE23893A46314628466F
:101FA000FFF747FFE1882846FFF73AFFBDE8F081D9
:101FB0000A884B881A438B881A43CB881A430B89AB
:101FC0001A434B891A438B891A43A0F8442070475F
:101FD0004FF6FF71818000210180C1804180017234
:101FE00070470021018041808180C1800181418151
:101FF0008181C18170470021018041800121818060
:102000000021C180018170470021018041808180D1
:10201000C18001814181818170470000002C014015
:10202000003401400004004000080040000C004063
:1020300021B1028842F00102028004E002884FF6DA
:10204000FE731A400280704731B1B0F8442042F468
:102050000042A0F8442005E0B0F84420C2F30E028C
:10206000A0F8442070471AB183890B43838102E0B2
:1020700083898B43838170478182704741EA0203E1
:10208000A0F8483070471AB183890B43838102E07E
:1020900083898B438381704701894FF6F872114021
:1020A000018170470A46002101894FF68F7319405C
:1020B00011430181704730B504460D46294620463C
:1020C000FFF7F0FF208940F00700208130BD2DE9A7
:1020D000F04104460D4616461F46602D06D13B468C
:1020E000012231462046FFF75AFE05E03B46012219
:1020F00031462046FFF79DFE29462046FFF7D2FFD6
:10210000208940F007002081BDE8F08130B50C4601
:1021100000210189C9B24FF6FF7505EA0325154371
:1021200025432943018130BD2DE9F04105460E4686
:1021300017469846002443463A4631462846FFF75C
:10214000E5FF2C894FF6F870044044F007044FF681
:102150008F70044044F070042C81BDE8F081F0B52C
:1021600004460D4616461F463B4632462946204643
:10217000FFF7CCFF208940F480402081F0BD01852D
:10218000828270470A46002101884FF68F731940FA
:10219000114301807047F0B50C4615461E460021DC
:1021A000002200230189028B038C4FF6F877394017
:1021B00021434FF6FC473A4040F201173A434FF6AD
:1021C000DD773B404FF6FF7707EA06172F433B4387
:1021D000018102830384F0BD0A460021018B4FF682
:1021E0008F7319401143018370470A460021018B08
:1021F00048F6FF7319404FF6FF7303EA02231943B1
:10220000018370470A460021818B4FF68F73194076
:102210001143818370470A460021818B48F6FF7382
:1022200019404FF6FF7303EA022319438183704775
:1022300021B1028842F08002028004E002884FF659
:102240007F731A400280704721B1828842F00402F5
:10225000828004E082884FF6FB731A4082807047C8
:1022600021B1828842F00802828004E082884FF621
:10227000F7731A408280704721B1828842F00102D0
:10228000828004E082884FF6FE731A408280704795
:102290000A460021018B4FF6F77319401143018361
:1022A00070470A460021018B4FF2FF7319404FF629
:1022B000FF7303EA02231943018370470A46002192
:1022C000818B4FF6F77319401143818370470A469B
:1022D0000021818B4FF2FF7319404FF6FF7303EA21
:1022E00002231943818370470A460021018B4FF670
:1022F000FB7319401143018370470A460021018B8B
:102300004FF6FF3319404FF6FF7303EA02231943D8
:10231000018370470A460021818B4FF6FB731940F9
:102320001143818370470A460021818B4FF6FF33AA
:1023300019404FF6FF7303EA022319438183704764
:102340000A460021018B4FF67F7319401143018328
:1023500070470A460021018BC1F30E014FF6FF734F
:1023600003EA02231943018370470A460021818B47
:102370004FF67F7319401143818370470A4600214D
:10238000818BC1F30E014FF6FF7303EA0223194359
:10239000818370470A460021018C4FF6FD73194076
:1023A0001143018470470A460021018C4FF6F773F0
:1023B00019401143018470470A460021018C4FF6F1
:1023C000DF7319404FF6FF7303EA021319430184C8
:1023D00070470A460021018C4FF67F7319404FF673
:1023E000FF7303EA02131943018470470A46002170
:1023F000018C4FF6FF5319404FF6FF7303EA022397
:102400001943018470470A460021018C4FF2FF7383
:1024100019404FF6FF7303EA022319430184704702
:102420000A460021018C4DF6FF7319404FF6FF73E9
:1024300003EA023319430184704730B500230124B5
:102440008C40A3B2048C9C430484048C02FA01F5F2
:10245000ADB22C43048430BD30B5002304248C403D
:10246000A3B2048C9C430484048C02FA01F5ADB23F
:102470002C43048430BD70B5034600200024184668
:10248000183001258D40ACB21D8CA5431D8409B1C7
:10249000082909D100EB6100056825F07005056089
:1024A0000568154305600EE00D1FC5F34E05284471
:1024B000056825F4E045056005684FF6FF7606EAF5
:1024C00002263543056070BD21B1028842F0020248
:1024D000028004E002884FF6FD731A4002807047C4
:1024E00021B1028842F00402028004E002884FF623
:1024F000FB731A400280704721B1828842F080024B
:10250000828004E082884FF67F731A408280704791
:1025100002884FF6F7731A40028002880A4302804D
:10252000704782884FF68F731A40828082880A43F0
:102530008280704702894FF6F8731A40028102893F
:102540000A430281704702894FF67F731A40028165
:1025500002890A43028170478184704781857047F0
:10256000818670470187704781877047A0F84010C7
:10257000704702884FF6FF431A40028002880A43E0
:10258000028070470146888E70470146088F704769
:102590000146888F70470146B1F8400070470146F8
:1025A000888C70470146088D704702460020138AC8
:1025B0000B4201D0012000E000207047CA43028294
:1025C000704730B50246002000230024158A05EA32
:1025D0000103958905EA010413B10CB1012000E063
:1025E000002030BDCA430282704770477047704771
:1025F000754600F029F8AE4605006946534620F0BE
:102600000700854618B020B5FEF7E0FABDE8204087
:102610004FF000064FF000074FF000084FF0000B9E
:1026200021F00701AC46ACE8C009ACE8C009ACE851
:10263000C009ACE8C0098D4670470446AFF300807E
:102640002046FDF7BCFD0000004870473000002028
:1026500001491820ABBEFEE72600020070470000CB
:10266000000000000000000000000000000000006A
:1026700000F80000000000000033300000000010EF
:102680000C06100C0600000000000000000040C016
:102690007840C0784000043F04043F040400007008
:1026A00088FC08300000001820FF211E0000F00800
:1026B000F000E018000000211C031E211E0000F0A5
:1026C0000888700000001E212324192721101016ED
:1026D0000E000000000000000000000000000000EC
:1026E00000E018040200000000071820400000026B
:1026F0000418E000000000402018070000004040DF
:1027000080F0804040000202010F01020200000040
:1027100000F0000000000101011F010101000000A4
:1027200000000000000080B0700000000000000009
:102730000000000000000001010101010101000092
:102740000000000000000030300000000000000029
:10275000000080601804006018060100000000E01E
:1027600010080810E000000F102020100F000010CB
:1027700010F8000000000020203F20200000007022
:10278000080808887000003028242221300000301A
:102790000888884830000018202020110E00000012
:1027A000C02010F8000000070424243F240000F893
:1027B0000888880808000019212020110E0000E078
:1027C000108888180000000F112020110E0000381A
:1027D0000808C83808000000003F00000000007032
:1027E000880808887000001C222121221C0000E0BB
:1027F00010080810E0000000312222110F00000034
:1028000000C0C000000000000030300000000000E8
:102810000080000000000000806000000000000058
:1028200080402010080000010204081020004040F1
:102830004040404040000404040404040400000834
:1028400010204080000000201008040201000070E9
:1028500048080808F0000000003036010000C030D1
:10286000C828E810E0000718272423140B000000F4
:10287000C038E0000000203C23020227382008F87E
:10288000888888700000203F202020110E00C03072
:10289000080808083800071820202010080008F849
:1028A00008080810E000203F202020100F0008F842
:1028B0008888E8081000203F20202320180008F80E
:1028C0008888E8081000203F200003000000C03086
:1028D00008080838000007182020221E020008F807
:1028E00008000008F808203F210101213F200008CE
:1028F00008F8080800000020203F20200000000009
:102900000808F8080800C08080807F00000008F8F0
:1029100088C028180800203F20012638200008F829
:10292000080000000000203F20202020300008F890
:10293000F800F8F80800203F003F003F200008F8AA
:1029400030C00008F808203F200007183F00E010C2
:1029500008080810E0000F10202020100F0008F8D1
:1029600008080808F000203F210101010000E010E4
:1029700008080810E0000F18242438504F0008F809
:10298000888888887000203F2000030C3020007069
:102990008808080838000038202121221C00180867
:1029A00008F8080818000000203F2000000008F880
:1029B00008000008F808001F202020201F000878C9
:1029C000880000C83808000007380E010000F80829
:1029D00000F80008F800033C0700073C0300081853
:1029E00068808068180820302C03032C30200838B9
:1029F000C800C83808000000203F20000000100870
:102A00000808C838080020382621202018000000B7
:102A100000FE020202000000007F40404000000C67
:102A200030C000000000000000010638C0000002B5
:102A30000202FE000000004040407F000000000055
:102A40000402020204000000000000000000000078
:102A50000000000000008080808080808080000274
:102A60000204000000000000000000000000000060
:102A70008080808000000019242222223F2008F854
:102A8000008080000000003F112020110E00000097
:102A9000008080800000000E112020201100000026
:102AA00000808088F800000E112020103F200000D8
:102AB000808080800000001F2222222213000080DC
:102AC00080F0888888180020203F20200000000027
:102AD000808080808000006B94949493600008F85C
:102AE000008080800000203F210000203F200080E7
:102AF0009898000000000020203F202000000000E7
:102B000000809898000000C08080807F000008F856
:102B1000000080808000203F24022D30200000082B
:102B200008F8000000000020203F202000008080E6
:102B3000808080808000203F20003F20003F8080F8
:102B4000008080800000203F210000203F20000006
:102B5000808080800000001F202020201F008080B7
:102B600000808000000080FFA12020110E000000E6
:102B7000008080808000000E112020A0FF808080D7
:102B800080008080800020203F2120000100000084
:102B90008080808080000033242424241900008059
:102BA00080E0808000000000001F20200000808066
:102BB000000000808000001F202020103F20808027
:102BC00080000080808000010E30080601008080B7
:102BD0000080008080800F300C030C300F000080DC
:102BE0008000808080000020312E0E312000808007
:102BF00080000080808080818E7018060100008037
:102C00008080808080000021302C22213000000054
:102C10000000807C020200000000003F40400000F5
:102C20000000FF00000000000000FF0000000002A4
:102C3000027C800000000040403F000000000006D1
:102C40000101020204040000000000000000000076
:102C500000000000004F00000007000700147F1470
:102C60007F14242A7F2A12231308646236495522CE
:102C7000500005070000001C2241000041221C00FA
:102C800014083E081408083E0808005030000008E8
:102C900008080808006060000020100804023E5187
:102CA00049453E00427F400042615149462141452D
:102CB0004B311814127F1027454545393C4A494984
:102CC0003001710905033649494936064949291E2B
:102CD0000036360000005636000008142241001469
:102CE0001414141400412214080201510906324937
:102CF00079413E7E1111117E7F494949363E41415D
:102D000041227F4141221C7F494949417F090909EC
:102D1000013E4149497A7F0808087F00417F410010
:102D20002040413F017F081422417F404040407FC6
:102D3000020C027F7F0408107F3E4141413E7F0923
:102D40000909063E4151215E7F0919294646494934
:102D5000493101017F01013F4040403F1F20402099
:102D60001F3F4038403F631408146307087008078A
:102D70006151494543007F41410002040810200091
:102D800041417F00040201020440404040400102F2
:102D900004000020545454787F4848483038444454
:102DA0004444304848487F385454545800087E09F9
:102DB00002485454543C7F0808087000007A000010
:102DC0002040403D007F2028440000417F40007C9F
:102DD0000438047C7C0804047838444444387C1467
:102DE000141408081414147C7C080404084854546F
:102DF000542404043F44243C4040403C1C204020D8
:102E00001C3C4030403C442810284404483008040E
:102E10004464544C440836414100000077000000EF
:102E20004141360804020202012030AC6310201038
:102E3000484443444810202000226722121240E2F6
:102E4000524A46425262C20000000000007F4949D7
:102E50004949497F000000000000FF49494949FFF6
:102E600000FF49494949FF00002424A4FEA3220091
:102E700022CC0000FF00000000080601FF00010452
:102E800004040404FF02020200101010FF10900856
:102E9000888888FF88888808000444827F018080B1
:102EA00040432C102846818000000000CC2E0008F2
:102EB00000000020300000006C010008FC2E00081B
:102EC00030000020600600008801000800A24A04CB
:102ED00000000000000000000102030406070809CA
:102EE00000000000000000000000000001020304D8
:0C2EF0000102030406070809020406089A
:0400000508000131BD
:00000001FF
